:060000000C943E000C947C
:1000060000000C9400000C9400000C9400000C946A
:1000160000000C9400000C9400000C9400000C945A
:1000260000000C9400000C9400000C9400000C944A
:1000360000000C9400000C9400000C9400000C943A
:1000460000000C9400000C9400000C940000102793
:10005600E80364000A00010000100001100001001E
:100066002564003A000080C00200600169000200B9
:1000760062016C000000F894EE27ECBBF1E0FBBFD8
:10008600EBBFE5BF8DE0A2E0BB27ED938A95E9F7CC
:1000960080E094E0A0E6ED930197E9F7EEE6F0E064
:1000A60085919591009761F0A591B5910590159070
:1000B600BF01F00105900D920197E1F7FB01F0CF2A
:1000C600EFE5EDBFE4E0EEBFC0E6D1E00C946B00D7
:1000D600A09700E010E020E030E0EFEFEABBE0E0C0
:1000E600EBBBE7BBE8BBE4BBE5BBE1BBE2BBE3BF05
:1000F600E2BFECBFEFBDE4E0EEBDE5E8EDBDEEEE40
:10010600ECBDE0E0E7BDE6BDEBBDEABDE9BDE8BD9F
:10011600E5BFE4BFEAB9E0E8E8B9E0E0E0BFE6B988
:10012600EDB9E6BFA0E10E94D4027894FE01709674
:100136000E941B03F8010E942203E0E00E942B03A9
:10014600DE0150960E94C302E2E00E942B03A0E665
:10015600B1E00E94C302FE010E941B03F9010E9446
:100166002203E3E00E942B03DE010E94C302A4E601
:10017600B0E00E9469032F5F3F4FECE3F0E0E21727
:10018600F30731F40E94A2020F5F1F4F20E030E018
:10019600CDCFFFCFBA93AA931A930A93AA81BB81B4
:1001A60012960E948003309759F1AA81BB8114965A
:1001B6000E9480038F01309761F00230E0E01E0755
:1001C60098F0F80131978F01AA81BB811496ED93BF
:1001D600FC93AA81BB811296ED91FD913196FE9317
:1001E600EE933197AC81A083AA81BB810E948003E4
:1001F600FF232AF0ED91FD913196FE93EE9306C012
:10020600AA81BB81EFEFFFEFED93FC931981088183
:1002160025960895BA93AA9326970E948D0310E017
:10022600AC85BD85E0E0F0E0ED93FC93EA89FB89BF
:100236003196EA8BFB8B3197E4912E2FE03009F44F
:1002460015C1E12FE03039F4253211F411E002C076
:100256000E942F030AC1E130A9F4253219F40E9445
:100266002F0302C112E040E000E02D3211F401E05C
:10027600FCC02B3211F44BE2F8C0203211F440E2FC
:10028600F4C002C0E23039F450E013E0203311F438
:100296000068EBC003C0E33009F0E7C0203310F07C
:1002A6002A3308F007C0AAE05A9F502DE22FE053E8
:1002B6005E0FDBC0E22FE33649F40E943603E8897D
:1002C600F989A481AA930E943C03CEC0E33741F486
:1002D6000E9436030E9442030E9402031E2F0AC098
:1002E600E03761F40E9436030E9442030E940E0327
:1002F6001E2F086002600F7730E034C0E43611F03C
:10030600E93611F4046002C0E53731F4E4E5F0E0C3
:10031600EE83FF8315E00CC0E83511F4086003C0D6
:10032600E83709F0A1C0EEE5F0E0EE83FF8314E0C4
:1003360002FF14C00E9436030E944C03AB85AA2319
:100346003AF4EA85FB850E947703EA87FB874DE24C
:10035600403011F01F5F01C00B7F04C00E943603BE
:100366000E944C0300FD11C0151778F407FF08C062
:1003760002FF04C00B7F242F115001C020E301C0EF
:1003860020E20E942F035150EFCF312F01FF17C0FB
:100396003030A1F003FF06C0EE81FF812591EE8388
:1003A600FF8305C0AE81BF812D91AE83BF830E94BE
:1003B6002F03503009F051503150EACF4BC020E3A3
:1003C600EE81FF810E948403E887F987EE81FF8131
:1003D6003296EE83FF83E885F985AA85BB85AE173D
:1003E600BF0750F02F5FA885B985EA85FB85EA1B14
:1003F600FB0BEA87FB87EFCF2A3328F003FF02C007
:10040600295F01C0295D04FD1AC0213320F4A885A7
:10041600B985119709F409C0531710F000FF01C000
:1004260013C020E207FF0BC020E3006102FF07C0F4
:100436000B7F4A930E943C03503009F051500E94B2
:100446002F03503009F051503150A885B9851297C5
:1004560008F0B5CF00FF08C0503031F05150E0E24F
:10046600EA930E943C03F8CF10E0E0CEAC85BD8550
:100476000E9480030E94940364960895FF92F82ECA
:1004860026970E948F030E945403309719F4EFEFCA
:10049600FFEF23C0DE0116960E9473038D010E94B2
:1004A6005403EE83FF83E0E0E887E987DE011A96CE
:1004B6000E9473030E948003FA93EA931A930A93A5
:1004C600EDECF0E0FA93EA93DE011A96A3DE9F01C3
:1004D600AE81BF81E0E0EC93F9010E9496032A9673
:1004E600FF900895AA93EBB3EF70AE2FE881E07FFB
:1004F600EA2BEBBB8DE08A95F1F7DA9A8DE08A95C7
:10050600F1F7DA988DE08A95F1F777C0AA93A8817A
:10051600E9DFE881E295E883A881E4DF85E88A954A
:10052600F1F76BC0AA93E881F0E0EE59FE4FE08147
:10053600A981AE0FEBDF5980488022960895A2E08C
:100546000E945B03ACE0E2DFA1E00E945B03E0E017
:100556004E2E5E2E0895AA93A881AA3011F0571444
:1005660048F0E0E0EA934394A42DDCDFA881AA30AA
:1005760009F443C05394D89AA881C8DFD8983DC0DF
:10058600BA93AA931A93A981BA81ED91A983BA83E2
:100596001E2FE03019F0A12FDEDFF5CF188123964C
:1005A6000895AA93EAB3E06FEABBD29AD09AD19A99
:1005B600DA98D898D9987880E881E058E093640171
:1005C600E881E054E0936501A4E1B0E00E9469038C
:1005D6000E9461030E9461030E946103A0E282DF20
:1005E60088EC90E00197F1F7A8E290DFA4E08EDFB7
:1005F600A5E88CDFA6E08ADFA2DF21960895BA93EC
:10060600AA93A991B991EE27FF276D91662311F060
:100616003196FBCF0895BA93AA93AA27BB27E991EF
:10062600F9910590002011F01196FBCFFD01089578
:10063600FA93EA93E6E6F0E0FA93EA9308950E94C5
:100646007B030E94880384E00E9441022896089555
:10065600EA93A0E00C9495022A93AD85BE85EF85BA
:10066600F88909950895E889F9893497E88BF98B13
:100676000895AD85BE85EF85F88909950895A88901
:10068600B98914960E948003EE83FF83AE81BF81F1
:100696000895A889B98914960E948003EA87FB8782
:1006A6000895DE011C960E9473030E94800308953C
:1006B6000E948902A3E0B0E00C946903A0E30E94C3
:1006C600750288EC90E00197F1F70895109639F0DD
:1006D600A89580ED97E00197F1F71197C9F708956E
:1006E6000024AF0DB01D0895F195E195F0400895F1
:1006F6006F2F660F660B762F0895ED91FC9111977B
:1007060008950590F491E02D08957A936A93FA93EB
:10071600EA9308955A934A933A932A931A930A931B
:1007260008955D814C813B812A8119810881089554
:00000001FF
