:040000000C942A0032
:100004000C9400000C9400000C9400000C9400006C
:100014000C9400000C9400000C9400000C9400005C
:100024000C9400000C9400000C9400000C9400004C
:100034000C9400000C9400000C9400000C9400003C
:100044000C9400000C9400000C9400000C9400002C
:10005400F894EE27ECBBF1E0FBBFEBBFE5BF8DE00E
:10006400A2E0BB27ED938A95E9F780E094E0A0E64F
:10007400ED930197E9F7EFE5EDBFE4E0EEBFC0E6ED
:10008400D1E00C944500E0E0EABBEBBBE7BBE8BB86
:10009400EFE3E4BBE0E0E5BBE1BBE2BBE3BFE2BF0F
:1000A400ECBFEFBDEEBDEDBDECBDE7BDE6BDEBBD08
:1000B400EABDE9BDE8BDE2BDE5BDE4BDE3BDE9BF20
:1000C400E5BFE4BFEAB9E0E8E8B9E0E0E0BFE6B9DB
:1000D400EDB9E6BFCE9B03C0A89AAA9AAC9AB69B88
:1000E40003C0A99AAB9AAD9ACE9903C0A898AA98CE
:1000F400AC98B69903C0A998AB98AD98EBCFFFCF55
:00000001FF
