:100000000C9444000C9400000C9400000C9400002C
:100010000C9400000C9400000C9400000C94000060
:100020000C9471000C9400000C9400000C940000DF
:100030000C9400000C9400000C9400000C94000040
:100040000C9400000C9400000C9400000C94000030
:100050000C9400001027E80364000A00010000105F
:100060000001100001000000000000002564003ABB
:10007000000080C0060004006600020060016F00FE
:100080000200820172000000F894EE27ECBBF1E060
:10009000FBBFEBBFE5BF8DE0A2E0BB27ED938A95E8
:1000A000E9F780E094E0A0E6ED930197E9F7E4E753
:1000B000F0E085919591009761F0A591B59105903B
:1000C0001590BF01F00105900D920197E1F7FB013A
:1000D000F0CFEFE5EDBFE4E0EEBFC0E6D1E00C9479
:1000E0009500EA93FA93EFB7EA93E5E8EDBDEEEEFB
:1000F000ECBDF40131964F01E1E0F0E0E815F905BF
:1001000029F4F30131963F0188249924ECE3F0E0CF
:10011000E615F70529F4F20131962F0166247724BC
:10012000E991EFBFF991E9911895EFEFEABBE0E0B3
:10013000EBBBE7BBE8BBE4BBE5BBE1BBE2BBE3BFBA
:10014000E2BFECBFEFBDE4E0EEBDE5E8EDBDEEEEF5
:10015000ECBDE0E0E7BDE6BDEBBDEABDE9BDE8BD55
:10016000E2BDE5BDE4BDE3BDE4E0E9BFE0E0E5BF3D
:10017000E4BFEAB9E0E8E8B9E0E0E0BFE6B9EDB92C
:10018000E6BFA0E10E94F1027894E2E6F1E00E946D
:100190003803F2010E943F03E0E00E944803A2E618
:1001A000B1E00E94E002E2E00E944803A0E6B1E074
:1001B0000E94E002E2E7F1E00E943803F3010E94AE
:1001C0003F03E3E00E944803A2E7B1E00E94E0029F
:1001D000DCCFFFCFBA93AA931A930A93AA81BB816B
:1001E00012960E949D03309759F1AA81BB81149603
:1001F0000E949D038F01309761F00230E0E01E07FE
:1002000098F0F80131978F01AA81BB811496ED9384
:10021000FC93AA81BB811296ED91FD913196FE93DC
:10022000EE933197AC81A083AA81BB810E949D038C
:10023000FF232AF0ED91FD913196FE93EE9306C0D7
:10024000AA81BB81EFEFFFEFED93FC931981088149
:1002500025960895BA93AA9326970E94AA0310E0C0
:10026000AC85BD85E0E0F0E0ED93FC93EA89FB8985
:100270003196EA8BFB8B3197E4912E2FE03009F415
:1002800015C1E12FE03039F4253211F411E002C03C
:100290000E944C030AC1E130A9F4253219F40E94EE
:1002A0004C0302C112E040E000E02D3211F401E005
:1002B000FCC02B3211F44BE2F8C0203211F440E2C2
:1002C000F4C002C0E23039F450E013E0203311F4FE
:1002D0000068EBC003C0E33009F0E7C0203310F042
:1002E0002A3308F007C0AAE05A9F502DE22FE053AE
:1002F0005E0FDBC0E22FE33649F40E945303E88926
:10030000F989A481AA930E945903CEC0E33741F42E
:100310000E9453030E945F030E941F031E2F0AC006
:10032000E03761F40E9453030E945F030E942B0395
:100330001E2F086002600F7730E034C0E43611F001
:10034000E93611F4046002C0E53731F4E4E5F0E089
:10035000EE83FF8315E00CC0E83511F4086003C09C
:10036000E83709F0A1C0EEE5F0E0EE83FF8314E08A
:1003700002FF14C00E9453030E946903AB85AA23A5
:100380003AF4EA85FB850E949403EA87FB874DE2F5
:10039000403011F01F5F01C00B7F04C00E94530367
:1003A0000E94690300FD11C0151778F407FF08C00B
:1003B00002FF04C00B7F242F115001C020E301C0B5
:1003C00020E20E944C035150EFCF312F01FF17C0A4
:1003D0003030A1F003FF06C0EE81FF812591EE834E
:1003E000FF8305C0AE81BF812D91AE83BF830E9484
:1003F0004C03503009F051503150EACF4BC020E34C
:10040000EE81FF810E94A103E887F987EE81FF81D9
:100410003296EE83FF83E885F985AA85BB85AE1702
:10042000BF0750F02F5FA885B985EA85FB85EA1BD9
:10043000FB0BEA87FB87EFCF2A3328F003FF02C0CC
:10044000295F01C0295D04FD1AC0213320F4A8856D
:10045000B985119709F409C0531710F000FF01C0C6
:1004600013C020E207FF0BC020E3006102FF07C0BA
:100470000B7F4A930E945903503009F051500E945B
:100480004C03503009F051503150A885B98512976E
:1004900008F0B5CF00FF08C0503031F05150E0E215
:1004A000EA930E945903F8CF10E0E0CEAC85BD85F9
:1004B0000E949D030E94B10364960895FF92F82E56
:1004C00026970E94AC030E947103309719F4EFEF56
:1004D000FFEF23C0DE0116960E9490038D010E945B
:1004E0007103EE83FF83E0E0E887E987DE011A9677
:1004F0000E9490030E949D03FA93EA931A930A9331
:10050000EAEEF0E0FA93EA93DE011A96A3DE9F0189
:10051000AE81BF81E0E0EC93F9010E94B3032A961B
:10052000FF900895AA93EBB3EF70AE2FE881E07FC0
:10053000EA2BEBBB8DE08A95F1F7DA9A8DE08A958C
:10054000F1F7DA988DE08A95F1F777C0AA93A88140
:10055000E9DFE881E295E883A881E4DF85E88A9510
:10056000F1F76BC0AA93E881F0E0EE57FE4FE0810F
:10057000A981AE0FEBDFB980A88022960895A2E092
:100580000E947803ACE0E2DFA1E00E947803E0E0A3
:10059000AE2EBE2E0895AA93A881AA3011F0BD14E4
:1005A00048F0E0E0EA93A394AA2DDCDFA881AA300A
:1005B00009F443C0B394D89AA881C8DFD8983DC045
:1005C000BA93AA931A93A981BA81ED91A983BA83A8
:1005D0001E2FE03019F0A12FDEDFF5CF1881239612
:1005E0000895AA93EAB3E06FEABBD29AD09AD19A5F
:1005F000DA98D898D998D880E881E058E0938401B7
:10060000E881E054E0938501A4E1B0E00E94860314
:100610000E947E030E947E030E947E03A0E282DF8E
:1006200088EC90E00197F1F7A8E290DFA4E08EDF7C
:10063000A5E88CDFA6E08ADFA2DF21960895BA93B1
:10064000AA93A991B991EE27FF276D91662311F026
:100650003196FBCF0895BA93AA93AA27BB27E991B5
:10066000F9910590002011F01196FBCFFD0108953E
:10067000FA93EA93ECE6F0E0FA93EA9308950E9485
:1006800098030E94A50384E00E945E0228960895C4
:10069000EA93A0E00C94B2022A93AD85BE85EF8563
:1006A000F88909950895E889F9893497E88BF98BD9
:1006B0000895AD85BE85EF85F88909950895A889C7
:1006C000B98914960E949D03EE83FF83AE81BF819A
:1006D0000895A889B98914960E949D03EA87FB872B
:1006E0000895DE011C960E9490030E949D030895C8
:1006F0000E94A602A3E0B0E00C948603A0E30E944F
:10070000920288EC90E00197F1F70895109639F085
:10071000A89580ED97E00197F1F71197C9F7089533
:100720000024AF0DB01D0895F195E195F0400895B6
:100730006F2F660F660B762F0895ED91FC91119740
:1007400008950590F491E02D08957A936A93FA93B1
:10075000EA9308955A934A933A932A931A930A93E1
:1007600008955D814C813B812A811981088108951A
:00000001FF
