:020000000C945E
:100002003B000C9400000C9400000C9400000C9433
:1000120000000C9400000C9400000C9400000C945E
:1000220000000C9400000C9400000C9400000C944E
:1000320000000C9400000C9400000C9400000C943E
:1000420000000C9400000C9400000C9400000C942E
:1000520000001027E80364000A00010000100001FC
:100062001000010025303264000080C002006001EF
:100072006C000000F894EE27ECBBF1E0FBBFEBBF95
:10008200E5BF8DE0A2E0BB27ED938A95E9F780E01A
:1000920094E0A0E6ED930197E9F7EEE6F0E08591B2
:1000A2009591009761F0A591B59105901590BF01CA
:1000B200F00105900D920197E1F7FB01F0CFEFE51A
:1000C200EDBFE4E0EEBFC0E6D1E00C9468006097BB
:1000D20000E010E0E0E0EABBEBBBE7BBE8BBE4BB5F
:1000E200E5BBE1BBE2BBE3BFE2BFECBFEFBDEEBDF0
:1000F200EDBDECBDE7BDE6BDEBBDEABDE9BDE8BDCA
:10010200E2BDE5BDE4BDE3BDE9BFE5BFE4BFEAB9D9
:10011200E0E8E8B9E0E0E0BFE6B9EDB9E6BFA0E1AA
:100122000E94AE020E94F502989B06C00F5F1F4F0D
:100132000E94F5029899FECF999B06C0015010408B
:100142000E94F5029999FECFEFCFFFCFBA93AA93FF
:100152001A930A93AA81BB8112960E945E0330977A
:1001620059F1AA81BB8114960E945E038F013097D8
:1001720061F00230E0E01E0798F0F80131978F013C
:10018200AA81BB811496ED93FC93AA81BB8112963E
:10019200ED91FD913196FE93EE933197AC81A08360
:1001A200AA81BB810E945E03FF232AF0ED91FD919B
:1001B2003196FE93EE9306C0AA81BB81EFEFFFEF6B
:1001C200ED93FC931981088125960895BA93AA9319
:1001D20026970E946B0310E0AC85BD85E0E0F0E05D
:1001E200ED93FC93EA89FB893196EA8BFB8B31977D
:1001F200E4912E2FE03009F415C1E12FE03039F4FB
:10020200253211F411E002C00E940D030AC1E1304F
:10021200A9F4253219F40E940D0302C112E040E054
:1002220000E02D3211F401E0FCC02B3211F44BE25C
:10023200F8C0203211F440E2F4C002C0E23039F4D6
:1002420050E013E0203311F40068EBC003C0E33048
:1002520009F0E7C0203310F02A3308F007C0AAE003
:100262005A9F502DE22FE0535E0FDBC0E22FE336A0
:1002720049F40E941403E889F989A481AA930E948F
:100282001A03CEC0E33741F40E9414030E942003F4
:100292000E94DC021E2F0AC0E03761F40E941403A0
:1002A2000E9420030E94E8021E2F086002600F775E
:1002B20030E034C0E43611F0E93611F4046002C0D3
:1002C200E53731F4E4E5F0E0EE83FF8315E00CC09E
:1002D200E83511F4086003C0E83709F0A1C0EEE583
:1002E200F0E0EE83FF8314E002FF14C00E941403C7
:1002F2000E942A03AB85AA233AF4EA85FB850E9471
:100302005503EA87FB874DE2403011F01F5F01C0C1
:100312000B7F04C00E9414030E942A0300FD11C037
:10032200151778F407FF08C002FF04C00B7F242FC3
:10033200115001C020E301C020E20E940D03515080
:10034200EFCF312F01FF17C03030A1F003FF06C0FD
:10035200EE81FF812591EE83FF8305C0AE81BF81CF
:100362002D91AE83BF830E940D03503009F051508E
:100372003150EACF4BC020E3EE81FF810E9462033D
:10038200E887F987EE81FF813296EE83FF83E88565
:10039200F985AA85BB85AE17BF0750F02F5FA885E8
:1003A200B985EA85FB85EA1BFB0BEA87FB87EFCF62
:1003B2002A3328F003FF02C0295F01C0295D04FD32
:1003C2001AC0213320F4A885B985119709F409C010
:1003D200531710F000FF01C013C020E207FF0BC04B
:1003E20020E3006102FF07C00B7F4A930E941A03B9
:1003F200503009F051500E940D03503009F0515015
:100402003150A885B985129708F0B5CF00FF08C012
:10041200503031F05150E0E2EA930E941A03F8CFD3
:1004220010E0E0CEAC85BD850E945E030E9472039F
:1004320064960895FF92F82E26970E946D030E94FB
:100442003203309719F4EFEFFFEF23C0DE01169667
:100452000E9451038D010E943203EE83FF83E0E08C
:10046200E887E987DE011A960E9451030E945E0323
:10047200FA93EA931A930A93E7EAF0E0FA93EA937B
:10048200DE011A96A3DE9F01AE81BF81E0E0EC930C
:10049200F9010E9474032A96FF900895AA93EBB380
:1004A200EF70AE2FE881E07FEA2BEBBB8DE08A95FF
:1004B200F1F7DA9A8DE08A95F1F7DA988DE08A956C
:1004C200F1F777C0AA93A881E9DFE881E295E88392
:1004D200A881E4DF85E88A95F1F76BC0AA93E881E9
:1004E200F0E0E05AFE4FE081A981AE0FEBDF5980C8
:1004F200488022960895A2E00E943903ACE0E2DF30
:10050200A1E00E943903E0E04E2E5E2E0895AA93E8
:10051200A881AA3011F0571448F0E0E0EA9343941E
:10052200A42DDCDFA881AA3009F443C05394D89AE1
:10053200A881C8DFD8983DC0BA93AA931A93A9811B
:10054200BA81ED91A983BA831E2FE03019F0A12F51
:10055200DEDFF5CF188123960895AA93EAB3E06F00
:10056200EABBD29AD09AD19ADA98D898D998788058
:10057200E881E058E0936201E881E054E09363018E
:10058200A4E1B0E00E9447030E943F030E943F03A0
:100592000E943F03A0E282DF88EC90E00197F1F72E
:1005A200A8E290DFA4E08EDFA5E88CDFA6E08ADF78
:1005B200A2DF21960895BA93AA93A991B991EE2741
:1005C200FF276D91662311F03196FBCF0895BA9300
:1005D200AA93AA27BB27E991F9910590002011F06F
:1005E2001196FBCFFD010895E6E0EA93A0E00E9498
:1005F2006F02FE01FA93EA93E6E6F0E0FA93EA93D9
:10060200F8010E9459030E94660384E00E941B02C3
:100612002896DE010C949D022A93AD85BE85EF8556
:10062200F88909950895E889F9893497E88BF98B57
:100632000895AD85BE85EF85F88909950895A88945
:10064200B98914960E945E03EE83FF83AE81BF8157
:100652000895A889B98914960E945E03EA87FB87E8
:100662000895DE011C960E9451030E945E030895C4
:100672000E946302A3E0B0E00C944703A0E30E944F
:100682004F0288EC90E00197F1F70895109639F047
:10069200A89580ED97E00197F1F71197C9F70895B2
:1006A2000024AF0DB01D0895F195E195F040089535
:1006B2006F2F660F660B762F0895ED91FC911197BF
:1006C20008950590F491E02D08957A936A93FA9330
:1006D200EA9308955A934A933A932A931A930A9360
:1006E20008955D814C813B812A8119810881089599
:00000001FF
