:0E0000000C942A000C9400000C9400000C9448
:10000E0000000C9400000C9400000C9400000C9462
:10001E0000000C9400000C9400000C9400000C9452
:10002E0000000C9400000C9400000C9400000C9442
:10003E0000000C9400000C9400000C9400000C9432
:10004E0000000C940000F894EE27ECBBF1E0FBBF2F
:10005E00EBBFE5BF8DE0A2E0BB27ED938A95E9F7F4
:10006E0080E094E0A0E6ED930197E9F7EFE5EDBFB0
:10007E00E4E0EEBFC0E6D1E00C94450010E000E0F5
:10008E0030E020E0E0E0EABBEBBBE7BBE8BBE1E041
:10009E00E4BBE0E0E5BBE1BBE2BBE3BFE2BFECBF2C
:1000AE00EFBDEEBDEDBDECBDE7BDE6BDEBBDEABD02
:1000BE00E9BDE8BDE2BDE5BDE4BDE3BDE9BFE5BF19
:1000CE00E4BFEAB9E0E8E8B9E0E0E0BFE6B9EDB9CF
:1000DE00E6BFC89911E0C99901E0CA9931E0CB9900
:1000EE0021E0103031F0003021F0303011F02030AE
:1000FE0009F40AC0A89AA8EBBBE00E948D00A8984C
:10010E0010E000E030E020E0E4CFFFCF109639F0B1
:10011E00A8958AEF90E00197F1F71197C9F7089526
:00000001FF
