:040000000C94450017
:100004000C9400000C9400000C9400000C9400006C
:100014000C9400000C9400000C9400000C9400005C
:100024000C9472000C9400000C9400000C940000DA
:100034000C9400000C9400000C9400000C9400003C
:100044000C9400000C9400000C9400000C9400002C
:100054001027E80364000A000100001000011000EA
:10006400010000000000000000002564003A0000C8
:1000740080C00800040066000200600171000200F4
:10008400620174000000F894EE27ECBBF1E0FBBFC2
:10009400EBBFE5BF8DE0A2E0BB27ED938A95E9F7BE
:1000A40080E094E0A0E6ED930197E9F7E6E7F0E05D
:1000B40085919591009761F0A591B5910590159062
:1000C400BF01F00105900D920197E1F7FB01F0CF1C
:1000D400EFE5EDBFE4E0EEBFC0E6D1E00C949D0097
:1000E400EA93FA93EFB7EA93E3E8E2BFBB2019F08F
:1000F400F40131964F01E4E6F0E0E815F90529F43E
:1001040088249924F30131963F01ECE3F0E0E615ED
:10011400F70529F466247724F20131962F01ECE3E4
:10012400F0E0E415F50511F444245524E991EFBFFA
:10013400F991E99118952697E0E0EABBEBBBE7BBA0
:10014400E8BBE4BBE5BBE1BBE2BBE3E0E3BFE3E860
:10015400E2BFE0E0ECBFEFBDEEBDEDBDECBDE7BD41
:10016400E6BDEBBDEABDE9BDE8BDE2BDE5BDE4BD6C
:10017400E3BDE1E0E9BFE0E0E5BFE4BFEAB9E0E800
:10018400E8B9E0E0E0BFE6B9EDB9E6BFA8E099D090
:100194007894989B08C09899FECF88249924662463
:1001A4007724E1E0BE2E999B03C09999FECFBB242E
:1001B4009A9B08C09A99FECFBB248824992466246C
:1001C40077244DD0FE0133960E945203F2010E941F
:1001D4005903E3E00E946203DE01139661D0E5E077
:1001E4000E946203A0E6B1E05BD0FE010E945203CC
:1001F400F3010E945903E6E00E946203DE0150D03D
:10020400C8CFFFCFAA93EBB3EF70AE2FE881E07FA6
:10021400EA2BEBBB8DE08A95F1F7DA9A8DE08A95AB
:10022400F1F7DA988DE08A95F1F777C0AA93A8815F
:10023400E9DFE881E295E883A881E4DF85E88A952F
:10024400F1F76BC0AA93E881F0E0EE59FE4FE0812C
:10025400A981AE0FEBDFA980D88022960895A2E091
:100264000E946603ACE0E2DFA1E00E946603E0E0E6
:10027400DE2EAE2E0895AA93A881AA3011F0AC14F4
:1002840048F0E0E0EA93D394AD2DDCDFA881AA30F6
:1002940009F443C0A394D89AA881C8DFD8983DC074
:1002A400BA93AA931A93A981BA81ED91A983BA83C7
:1002B4001E2FE03019F0A12FDEDFF5CF1881239631
:1002C4000895AA93EAB3E06FEABBD29AD09AD19A7E
:1002D400DA98D898D998C880E881E058E093640106
:1002E400E881E054E0936501A4E1B0E00E94A0033A
:1002F4000E946C030E946C030E946C03A0E282DFE4
:1003040088EC90E00197F1F7A8E290DFA4E08EDF9B
:10031400A5E88CDFA6E08ADFA2DF21960895BA93D0
:10032400AA931A930A93AA81BB8112960E94B703D7
:10033400309759F1AA81BB8114960E94B7038F01AB
:10034400309761F00230E0E01E0798F0F801319731
:100354008F01AA81BB811496ED93FC93AA81BB8182
:100364001296ED91FD913196FE93EE933197AC8107
:10037400A083AA81BB810E94B703FF232AF0ED91D9
:10038400FD913196FE93EE9306C0AA81BB81EFEFF7
:10039400FFEFED93FC931981088125960895BA9394
:1003A400AA9326970E94C40310E0AC85BD85E0E0C3
:1003B400F0E0ED93FC93EA89FB893196EA8BFB8BA1
:1003C4003197E4912E2FE03009F415C1E12FE0308C
:1003D40039F4253211F411E002C00E9474030AC1F9
:1003E400E130A9F4253219F40E94740302C112E029
:1003F40040E000E02D3211F401E0FCC02B3211F496
:100404004BE2F8C0203211F440E2F4C002C0E23002
:1004140039F450E013E0203311F40068EBC003C05A
:10042400E33009F0E7C0203310F02A3308F007C0A6
:10043400AAE05A9F502DE22FE0535E0FDBC0E22F5B
:10044400E33649F40E947B03E889F989A481AA93DD
:100454000E948103CEC0E33741F40E947B030E94D3
:1004640087030E9439031E2F0AC0E03761F40E94FB
:100474007B030E9487030E9445031E2F08600260CD
:100484000F7730E034C0E43611F0E93611F404603B
:1004940002C0E53731F4E4E5F0E0EE83FF8315E0D4
:1004A4000CC0E83511F4086003C0E83709F0A1C0B6
:1004B400EEE5F0E0EE83FF8314E002FF14C00E9437
:1004C4007B030E949103AB85AA233AF4EA85FB855A
:1004D4000E94AE03EA87FB874DE2403011F01F5FB4
:1004E40001C00B7F04C00E947B030E94910300FDA6
:1004F40011C0151778F407FF08C002FF04C00B7F72
:10050400242F115001C020E301C020E20E94740393
:100514005150EFCF312F01FF17C03030A1F003FF4E
:1005240006C0EE81FF812591EE83FF8305C0AE8175
:10053400BF812D91AE83BF830E947403503009F0B4
:1005440051503150EACF4BC020E3EE81FF810E942D
:10055400BB03E887F987EE81FF813296EE83FF8340
:10056400E885F985AA85BB85AE17BF0750F02F5FD4
:10057400A885B985EA85FB85EA1BFB0BEA87FB871F
:10058400EFCF2A3328F003FF02C0295F01C0295DA1
:1005940004FD1AC0213320F4A885B985119709F404
:1005A40009C0531710F000FF01C013C020E207FF79
:1005B4000BC020E3006102FF07C00B7F4A930E9437
:1005C4008103503009F051500E947403503009F0F7
:1005D40051503150A885B985129708F0B5CF00FF66
:1005E40008C0503031F05150E0E2EA930E94810398
:1005F400F8CF10E0E0CEAC85BD850E94B7030E9421
:10060400CB0364960895FF92F82E26970E94C603A2
:100614000E949903309719F4EFEFFFEF23C0DE0136
:1006240016960E94AA038D010E949903EE83FF830C
:10063400E0E0E887E987DE011A960E94AA030E9497
:10064400B703FA93EA931A930A93E1E9F1E0FA9370
:10065400EA93DE011A96A3DE9F01AE81BF81E0E03A
:10066400EC93F9010E94CD032A96FF900895BA9362
:10067400AA93A991B991EE27FF276D91662311F0F2
:100684003196FBCF0895BA93AA93AA27BB27E99181
:10069400F9910590002011F01196FBCFFD0108950A
:1006A400FA93EA93EEE6F0E0FA93EA9308950E944F
:1006B400B2030E94BF0384E00E94050328960895B4
:1006C400EA93A0E00C9424010E941801A3E0B0E096
:1006D4000C94A003A0E30E94040188EC90E001972D
:1006E400F1F708952A93AD85BE85EF85F8890995BC
:1006F4000895E889F9893497E88BF98B0895AD85D5
:10070400BE85EF85F88909950895A889B989149655
:100714000E94B703EE83FF83AE81BF810895A88949
:10072400B98914960E94B703EA87FB870895DE010E
:100734001C960E94AA030E94B7030895109639F0EC
:10074400A89580ED97E00197F1F71197C9F70895FF
:100754000024AF0DB01D0895F195E195F040089582
:100764006F2F660F660B762F0895ED91FC9111970C
:1007740008950590F491E02D08957A936A93FA937D
:10078400EA9308955A934A933A932A931A930A93AD
:1007940008955D814C813B812A81198108810895E6
:00000001FF
