:0C0000000C9431000C9400000C940000E3
:10000C000C9400000C9400000C9400000C94000064
:10001C000C9400000C9400000C945E000C940000F6
:10002C000C9400000C9400000C9400000C94000044
:10003C000C9400000C9400000C9400000C94000034
:10004C000C9400000C94000000000000000006005E
:10005C00040054000000F894EE27ECBBF1E0FBBF69
:10006C00EBBFE5BF8DE0A2E0BB27ED938A95E9F7E6
:10007C0080E094E0A0E6ED930197E9F7EAE5F0E083
:10008C0085919591009761F0A591B591059015908A
:10009C00BF01F00105900D920197E1F7FB01F0CF44
:1000AC00EFE5EDBFE4E0EEBFC0E6D1E00C948100DB
:1000BC00EA93FA93EFB7EA93E3E8E2BF992019F0D9
:1000CC00F30131963F01E4E6F0E0E615F70529F47B
:1000DC0066247724F20131962F01EBE0F0E0E41571
:1000EC00F50521F4992444245524D898E991EFBFBF
:1000FC00F991E9911895E1E0EABBE0E0EBBBE7BBD5
:10010C00E8BBE4BBE5BBE1BBE2BBE3E0E3BFE3E898
:10011C00E2BFE0E0ECBFEFBDEEBDEDBDECBDE7BD79
:10012C00E6BDEBBDEABDE9BDE8BDE2BDE5BDE4BDA4
:10013C00E3BDE1E0E9BFE0E0E5BFE4BFEAB9E0E838
:10014C00E8B9E0E0E0BFE6B9EDB9E6BF7894989B7A
:10015C0005C09899FECFD89AE1E09E2EF8CFFFCF3C
:00000001FF
