:0A0000000C942A000C9400000C94EC
:10000A0000000C9400000C9400000C9400000C9466
:10001A0000000C9400000C9400000C9400000C9456
:10002A0000000C9400000C9400000C9400000C9446
:10003A0000000C9400000C9400000C9400000C9436
:10004A0000000C9400000C940000F894EE27ECBB1E
:10005A00F1E0FBBFEBBFE5BF8DE0A2E0BB27ED936C
:10006A008A95E9F780E094E0A0E6ED930197E9F735
:10007A00EFE5EDBFE4E0EEBFC0E6D1E00C94450049
:10008A00E2E0EABBE1E0EBBBE0E0E7BBE8BBE4BBF4
:10009A00E1E0E5BBE0E0E1BBE2BBE3BFE2BFECBF0E
:1000AA00EFBDEEBDEDBDECBDE7BDE6BDEBBDEABD06
:1000BA00E9BDE8BDE2BDE5BDE4BDE3BDE9BFE5BF1D
:1000CA00E4BFEAB9E0E8E8B9E0E0E0BFE6B9EDB9D3
:1000DA00E6BF989B02C0DA9A01C0DA98FACFFFCF3E
:00000001FF
