:100000000C9443000C9400000C9400000C9400002D
:100010000C9400000C9400000C9400000C94000060
:100020000C9400000C9400000C9400000C94000050
:100030000C9400000C9400000C9400000C94000040
:100040000C9400000C9400000C9400000C94000030
:100050000C9400001027E80364000A00010000105F
:100060000001100001002564000001002D4E414EEA
:1000700000494E46000080C0010060016A00020095
:10008000640176000000F894EE27ECBBF1E0FBBFC2
:10009000EBBFE5BF8DE0A2E0BB27ED938A95E9F7C2
:1000A00080E094E0A0E6ED930197E9F7E8E7F0E05F
:1000B00085919591009761F0A591B5910590159066
:1000C000BF01F00105900D920197E1F7FB01F0CF20
:1000D000EFE5EDBFE4E0EEBFC0E6D1E00C948800B0
:1000E000BA93AA931A930A9300E010E00031E0E07B
:1000F0001E0754F4F801AA81BB81AE0FBF1FEBE6C7
:10010000EC930F5F1F4FF2CF198108812496089559
:10011000609700E010E0E0E0EABBEBBBE7BBE8BBC8
:10012000E4BBE5BBE1BBE2BBE3BFE2BFECBFEFBDBD
:10013000EEBDEDBDECBDE7BDE6BDEBBDEABDE9BD85
:10014000E8BDE2BDE5BDE4BDE3BDE9BFE5BFE4BF99
:10015000EAB9E0E8E8B9E0E0E0BFE6B9EDB9E6BF4A
:10016000A0E10E94DE020E942403E0E0EA93A0E006
:100170000E949F02DE010E94CD02989B0AC0DE0110
:10018000AFDF0F5F1F4F0E942403AEE0B1E00E947B
:100190006E03999B0AC0DE01A3DF015010400E944C
:1001A0002403AEE0B1E00E946E03DFCFFFCFBA932D
:1001B000AA931A930A93AA81BB8112960E9485037F
:1001C000309759F1AA81BB8114960E9485038F0153
:1001D000309761F00230E0E01E0798F0F8013197A7
:1001E0008F01AA81BB811496ED93FC93AA81BB81F8
:1001F0001296ED91FD913196FE93EE933197AC817D
:10020000A083AA81BB810E948503FF232AF0ED9180
:10021000FD913196FE93EE9306C0AA81BB81EFEF6C
:10022000FFEFED93FC931981088125960895BA9309
:10023000AA9326970E94920310E0AC85BD85E0E06A
:10024000F0E0ED93FC93EA89FB893196EA8BFB8B16
:100250003197E4912E2FE03009F415C1E12FE03001
:1002600039F4253211F411E002C00E9435030AC1AD
:10027000E130A9F4253219F40E94350302C112E0DD
:1002800040E000E02D3211F401E0FCC02B3211F40B
:100290004BE2F8C0203211F440E2F4C002C0E23078
:1002A00039F450E013E0203311F40068EBC003C0D0
:1002B000E33009F0E7C0203310F02A3308F007C01C
:1002C000AAE05A9F502DE22FE0535E0FDBC0E22FD1
:1002D000E33649F40E943C03E889F989A481AA9392
:1002E0000E944203CEC0E33741F40E943C030E94C7
:1002F00048030E940B031E2F0AC0E03761F40E94DE
:100300003C030E9448030E9417031E2F08600260EE
:100310000F7730E034C0E43611F0E93611F40460B0
:1003200002C0E53731F4E4E5F0E0EE83FF8315E049
:100330000CC0E83511F4086003C0E83709F0A1C02B
:10034000EEE5F0E0EE83FF8314E002FF14C00E94AC
:100350003C030E945203AB85AA233AF4EA85FB854D
:100360000E947C03EA87FB874DE2403011F01F5F5B
:1003700001C00B7F04C00E943C030E94520300FD99
:1003800011C0151778F407FF08C002FF04C00B7FE7
:10039000242F115001C020E301C020E20E94350348
:1003A0005150EFCF312F01FF17C03030A1F003FFC4
:1003B00006C0EE81FF812591EE83FF8305C0AE81EB
:1003C000BF812D91AE83BF830E943503503009F069
:1003D00051503150EACF4BC020E3EE81FF810E94A3
:1003E0008903E887F987EE81FF813296EE83FF83E8
:1003F000E885F985AA85BB85AE17BF0750F02F5F4A
:10040000A885B985EA85FB85EA1BFB0BEA87FB8794
:10041000EFCF2A3328F003FF02C0295F01C0295D16
:1004200004FD1AC0213320F4A885B985119709F479
:1004300009C0531710F000FF01C013C020E207FFEE
:100440000BC020E3006102FF07C00B7F4A930E94AC
:100450004203503009F051500E943503503009F0EA
:1004600051503150A885B985129708F0B5CF00FFDB
:1004700008C0503031F05150E0E2EA930E9442034C
:10048000F8CF10E0E0CEAC85BD850E9485030E94C8
:10049000990364960895FF92F82E26970E9494037C
:1004A0000E945A03309719F4EFEFFFEF23C0DE01EB
:1004B00016960E9478038D010E945A03EE83FF83F3
:1004C000E0E0E887E987DE011A960E9478030E943F
:1004D0008503FA93EA931A930A93E7EDF0E0FA930F
:1004E000EA93DE011A96A3DE9F01AE81BF81E0E0B0
:1004F000EC93F9010E949B032A96FF900895AA931A
:10050000EBB3EF70AE2FE881E07FEA2BEBBB82E02C
:100510008A95F1F7DA9A82E08A95F1F7DA9882E023
:100520008A95F1F776C0AA93A881E9DFE881E29580
:10053000E883A881E4DF81E18A95F1F76AC0AA9394
:10054000E881F0E0EC59FE4FE081A981AE0FEBDFCE
:100550005980488022960895A2E00E946103ACE091
:10056000E2DFA1E00E946103E0E04E2E5E2E0895DE
:10057000AA93A881AA3011F0571448F0E0E0EA935A
:100580004394A42DDCDFA881AA3009F442C053941F
:10059000D89AA881C8DFD8983CC0BA93AA931A9376
:1005A000A981BA81ED91A983BA831E2FE03019F099
:1005B000A12FDEDFF5CF188123960895AA93EAB321
:1005C000E06FEABBD29AD09AD19ADA98D898D998A3
:1005D0007880E881E058E0936601E881E054E09398
:1005E0006701A4E1B0E00E946E030E9467030E94CD
:1005F00067030E946703A0E282DF81E28A95F1F738
:10060000A8E291DFA4E08FDFA5E88DDFA6E08BDF15
:10061000A3DF21960895BA93AA93A991B991EE27E1
:10062000FF276D91662311F03196FBCF0895BA93A1
:10063000AA93AA27BB27E991F9910590002011F010
:100640001196FBCFFD010895FE01FA93EA93E6E6C9
:10065000F0E0FA93EA93F8010E9480030E948D0370
:1006600084E00E944B02289608952A93AD85BE85AA
:10067000EF85F88909950895E889F9893497E88B19
:10068000F98B0895AD85BE85EF85F88909950895A4
:10069000A889B98914960E948503EE83FF83AE81F1
:1006A000BF810895A889B98914960E948503EA87B5
:1006B000FB870895DE011C960E9478030E94850343
:1006C00008950E949302A3E0B0E00C946E03A0E3AF
:1006D0000E947F0281E28A95F1F70895109639F021
:1006E000A8958AEF90E00197F1F71197C9F708955F
:1006F0000024AF0DB01D0895F195E195F0400895E7
:100700006F2F660F660B762F0895ED91FC91119770
:1007100008950590F491E02D08957A936A93FA93E1
:10072000EA9308955A934A933A932A931A930A9311
:1007300008955D814C813B812A811981088108954A
:00000001FF
