:060000000C9445000C9475
:1000060000000C9400000C9400000C9400000C946A
:1000160000000C9400000C9400000C9400000C945A
:1000260072000C9400000C9400000C9400000C94D8
:1000360000000C9400000C9400000C9400000C943A
:1000460000000C9400000C9400000C940000102793
:10005600E80364000A00010000100001100001001E
:10006600000000000000000025303264203A202500
:100076003032640080C0080004006600020070018F
:100086007A000000F894EE27ECBBF1E0FBBFEBBF73
:10009600E5BF8DE0A2E0BB27ED938A95E9F780E006
:1000A60094E0A0E6ED930197E9F7ECE7F0E085919F
:1000B6009591009761F0A591B59105901590BF01B6
:1000C600F00105900D920197E1F7FB01F0CFEFE506
:1000D600EDBFE4E0EEBFC0E6D1E00C94DA000A9290
:1000E6001A92FA926A937A938A939A93AA93BA93F4
:1000F600EA93FA93EFB7EA93E3E8E2BFBB2019F07D
:10010600F20131962F01E4E0F0E0E415F50529F45B
:10011600F30131963F0144245524ECE3F0E0E61563
:10012600F70529F4F40131964F0166247724ECE3B0
:10013600F0E0E815F90511F488249924E2E0EA9341
:10014600A0E00E94D202E0E6F1E0FA93EA93EEE63E
:10015600F0E0FA93EA93F4010E94AB030E94B8031D
:10016600F3010E94AB030E94B80388E00E947E025E
:100176002C96A0E6B1E00E940003999B04C00E9461
:100186005803E1E0BE2E9F99BB24879B02C00E94C4
:100196005803E991EFBFF991E991B991A991999124
:1001A600899179916991F990199009901895E0E0F3
:1001B600EABBEBBBE7BBE8BBE4BBE5BBE1BBE2BB31
:1001C600E3E0E3BFE3E8E2BFE0E0ECBFEFBDEEBD96
:1001D600EDBDECBDE7BDE6BDEBBDEABDE9BDE8BDE5
:1001E600E2BDE5BDE4BDE3BDE1E0E9BFE0E0E5BFBA
:1001F600E4BFEAB9E0E8E8B9E0E0E0BFE6B9EDB9A6
:10020600E6BFA0E10E9411037894FFCFFFCFBA9317
:10021600AA931A930A93AA81BB8112960E94B003ED
:10022600309759F1AA81BB8114960E94B0038F01C1
:10023600309761F00230E0E01E0798F0F801319740
:100246008F01AA81BB811496ED93FC93AA81BB8191
:100256001296ED91FD913196FE93EE933197AC8116
:10026600A083AA81BB810E94B003FF232AF0ED91EF
:10027600FD913196FE93EE9306C0AA81BB81EFEF06
:10028600FFEFED93FC931981088125960895BA93A3
:10029600AA9326970E94BD0310E0AC85BD85E0E0D9
:1002A600F0E0ED93FC93EA89FB893196EA8BFB8BB0
:1002B6003197E4912E2FE03009F415C1E12FE0309B
:1002C60039F4253211F411E002C00E945F030AC11D
:1002D600E130A9F4253219F40E945F0302C112E04D
:1002E60040E000E02D3211F401E0FCC02B3211F4A5
:1002F6004BE2F8C0203211F440E2F4C002C0E23012
:1003060039F450E013E0203311F40068EBC003C069
:10031600E33009F0E7C0203310F02A3308F007C0B5
:10032600AAE05A9F502DE22FE0535E0FDBC0E22F6A
:10033600E33649F40E946603E889F989A481AA9301
:100346000E946C03CEC0E33741F40E9466030E940C
:1003560072030E943F031E2F0AC0E03761F40E9419
:1003660066030E9472030E944B031E2F0860026000
:100376000F7730E034C0E43611F0E93611F404604A
:1003860002C0E53731F4E4E5F0E0EE83FF8315E0E3
:100396000CC0E83511F4086003C0E83709F0A1C0C5
:1003A600EEE5F0E0EE83FF8314E002FF14C00E9446
:1003B60066030E947C03AB85AA233AF4EA85FB8593
:1003C6000E94A703EA87FB874DE2403011F01F5FCA
:1003D60001C00B7F04C00E9466030E947C0300FDDF
:1003E60011C0151778F407FF08C002FF04C00B7F81
:1003F600242F115001C020E301C020E20E945F03B8
:100406005150EFCF312F01FF17C03030A1F003FF5D
:1004160006C0EE81FF812591EE83FF8305C0AE8184
:10042600BF812D91AE83BF830E945F03503009F0D8
:1004360051503150EACF4BC020E3EE81FF810E943C
:10044600B403E887F987EE81FF813296EE83FF8356
:10045600E885F985AA85BB85AE17BF0750F02F5FE3
:10046600A885B985EA85FB85EA1BFB0BEA87FB872E
:10047600EFCF2A3328F003FF02C0295F01C0295DB0
:1004860004FD1AC0213320F4A885B985119709F413
:1004960009C0531710F000FF01C013C020E207FF88
:1004A6000BC020E3006102FF07C00B7F4A930E9446
:1004B6006C03503009F051500E945F03503009F030
:1004C60051503150A885B985129708F0B5CF00FF75
:1004D60008C0503031F05150E0E2EA930E946C03BC
:1004E600F8CF10E0E0CEAC85BD850E94B0030E9437
:1004F600C40364960895FF92F82E26970E94BF03C0
:100506000E948403309719F4EFEFFFEF23C0DE015A
:1005160016960E94A3038D010E948403EE83FF8337
:10052600E0E0E887E987DE011A960E94A3030E94AD
:10053600B003FA93EA931A930A93EAE0F1E0FA9386
:10054600EA93DE011A96A3DE9F01AE81BF81E0E049
:10055600EC93F9010E94C6032A96FF900895AA9388
:10056600EBB3EF70AE2FE881E07FEA2BEBBB8DE0BB
:100576008A95F1F7DA9A8DE08A95F1F7DA988DE0A7
:100586008A95F1F777C0AA93A881E9DFE881E29519
:10059600E883A881E4DF85E88A95F1F76BC0AA9322
:1005A600E881F0E0E059FE4FE081A981AE0FEBDF74
:1005B600A980D88022960895A2E00E948B03ACE021
:1005C600E2DFA1E00E948B03E0E0DE2EAE2E08956E
:1005D600AA93A881AA3011F0AC1448F0E0E0EA939F
:1005E600D394AD2DDCDFA881AA3009F443C0A394CF
:1005F600D89AA881C8DFD8983DC0BA93AA931A930F
:10060600A981BA81ED91A983BA831E2FE03019F032
:10061600A12FDEDFF5CF188123960895AA93EAB3BA
:10062600E06FEABBD29AD09AD19ADA98D898D9983C
:10063600C880E881E058E0937201E881E054E093D5
:100646007301A4E1B0E00E9499030E9491030E9405
:1006560091030E949103A0E282DF88EC90E001976B
:10066600F1F7A8E290DFA4E08EDFA5E88CDFA6E034
:100676008ADFA2DF21960895BA93AA93A991B99128
:10068600EE27FF276D91662311F03196FBCF089573
:10069600BA93AA93AA27BB27E991F991059000205E
:1006A60011F01196FBCFFD010895442455246624CC
:1006B60077248824992408952A93AD85BE85EF85ED
:1006C600F88909950895E889F9893497E88BF98BB3
:1006D6000895AD85BE85EF85F88909950895A889A1
:1006E600B98914960E94B003EE83FF83AE81BF8161
:1006F6000895A889B98914960E94B003EA87FB87F2
:100706000895DE011C960E94A3030E94B00308957B
:100716000E94C602A3E0B0E00C949903A0E30E94F5
:10072600B20288EC90E00197F1F70895109639F03F
:10073600A89580ED97E00197F1F71197C9F708950D
:100746000024AF0DB01D0895F195E195F040089590
:100756006F2F660F660B762F0895ED91FC9111971A
:1007660008950590F491E02D08957A936A93FA938B
:10077600EA9308955A934A933A932A931A930A93BB
:1007860008955D814C813B812A81198108810895F4
:00000001FF
