:0E0000000C942A000C9400000C9400000C9448
:10000E0000000C9400000C9400000C9400000C9462
:10001E0000000C9400000C9400000C9400000C9452
:10002E0000000C9400000C9400000C9400000C9442
:10003E0000000C9400000C9400000C9400000C9432
:10004E0000000C940000F894EE27ECBBF1E0FBBF2F
:10005E00EBBFE5BF8DE0A2E0BB27ED938A95E9F7F4
:10006E0080E094E0A0E6ED930197E9F7EFE5EDBFB0
:10007E00E4E0EEBFC0E6D1E00C944500E2E0E7BB61
:10008E00E0E0E8BBB098B09B0EC0B09B0BC0C19A2D
:10009E00ACEBB2E00E945D00C198ACEBB2E00E9406
:1000AE005D00F3CF01C0C198EDCFFFCF109639F0B0
:1000BE00A8958AEF90E00197F1F71197C9F7089587
:00000001FF
