:0C0000000C942A000C9400000C940000EA
:10000C000C9400000C9400000C9400000C94000064
:10001C000C9400000C9400000C9400000C94000054
:10002C000C9400000C9400000C9400000C94000044
:10003C000C9400000C9400000C9400000C94000034
:10004C000C9400000C940000F894EE27ECBBF1E04B
:10005C00FBBFEBBFE5BF8DE0A2E0BB27ED938A951C
:10006C00E9F780E094E0A0E6ED930197E9F7EFE57E
:10007C00EDBFE4E0EEBFC0E6D1E00C944500E3E058
:10008C00EABBE0E0EBBBE7BBE8BBE4BBE5BBE1BB39
:10009C00E2BBE3BFE2BFECBFEFBDEEBDEDBDECBD1F
:1000AC00E7BDE6BDEBBDEABDE9BDE8BDE2BDE5BD22
:1000BC00E4BDE3BDE9BFE5BFE4BFEAB9E0E8E8B9F8
:1000CC00E0E0E0BFE6B9EDB9E6BF989B09C00AD005
:1000DC00D89A08D0D898D99A05D0D9989899FECFA3
:1000EC00F4CFFFCFA4E6B0E00C947C00109639F06E
:1000FC00A89580ED97E00197F1F71197C9F708954E
:00000001FF
